{
    "contractName": "NftMarket",
    "abi": [
        {
            "inputs": [],
            "stateMutability": "nonpayable",
            "type": "constructor"
        },
        {
            "anonymous": false,
            "inputs": [
                {
                    "indexed": true,
                    "internalType": "uint256",
                    "name": "itemId",
                    "type": "uint256"
                },
                {
                    "indexed": true,
                    "internalType": "address",
                    "name": "nftContract",
                    "type": "address"
                },
                {
                    "indexed": true,
                    "internalType": "uint256",
                    "name": "tokenId",
                    "type": "uint256"
                },
                {
                    "indexed": false,
                    "internalType": "address",
                    "name": "seller",
                    "type": "address"
                },
                {
                    "indexed": false,
                    "internalType": "address",
                    "name": "owner",
                    "type": "address"
                },
                {
                    "indexed": false,
                    "internalType": "uint256",
                    "name": "price",
                    "type": "uint256"
                },
                {
                    "indexed": false,
                    "internalType": "bool",
                    "name": "sold",
                    "type": "bool"
                }
            ],
            "name": "MarketItemCreated",
            "type": "event"
        },
        {
            "inputs": [
                {
                    "internalType": "address",
                    "name": "nftContract",
                    "type": "address"
                },
                {
                    "internalType": "uint256",
                    "name": "tokenId",
                    "type": "uint256"
                },
                {
                    "internalType": "uint256",
                    "name": "price",
                    "type": "uint256"
                }
            ],
            "name": "createMarketNft",
            "outputs": [],
            "stateMutability": "payable",
            "type": "function"
        },
        {
            "inputs": [
                {
                    "internalType": "address",
                    "name": "nftContract",
                    "type": "address"
                },
                {
                    "internalType": "uint256",
                    "name": "itemId",
                    "type": "uint256"
                }
            ],
            "name": "createMarketSale",
            "outputs": [],
            "stateMutability": "payable",
            "type": "function"
        },
        {
            "inputs": [],
            "name": "fetchMarketNfts",
            "outputs": [
                {
                    "components": [
                        {
                            "internalType": "uint256",
                            "name": "itemId",
                            "type": "uint256"
                        },
                        {
                            "internalType": "address",
                            "name": "nftContract",
                            "type": "address"
                        },
                        {
                            "internalType": "uint256",
                            "name": "tokenId",
                            "type": "uint256"
                        },
                        {
                            "internalType": "address payable",
                            "name": "seller",
                            "type": "address"
                        },
                        {
                            "internalType": "address payable",
                            "name": "owner",
                            "type": "address"
                        },
                        {
                            "internalType": "uint256",
                            "name": "price",
                            "type": "uint256"
                        },
                        {
                            "internalType": "bool",
                            "name": "sold",
                            "type": "bool"
                        }
                    ],
                    "internalType": "struct NftMarket.MarketItem[]",
                    "name": "",
                    "type": "tuple[]"
                }
            ],
            "stateMutability": "view",
            "type": "function"
        },
        {
            "inputs": [],
            "name": "fetchMyNfts",
            "outputs": [
                {
                    "components": [
                        {
                            "internalType": "uint256",
                            "name": "itemId",
                            "type": "uint256"
                        },
                        {
                            "internalType": "address",
                            "name": "nftContract",
                            "type": "address"
                        },
                        {
                            "internalType": "uint256",
                            "name": "tokenId",
                            "type": "uint256"
                        },
                        {
                            "internalType": "address payable",
                            "name": "seller",
                            "type": "address"
                        },
                        {
                            "internalType": "address payable",
                            "name": "owner",
                            "type": "address"
                        },
                        {
                            "internalType": "uint256",
                            "name": "price",
                            "type": "uint256"
                        },
                        {
                            "internalType": "bool",
                            "name": "sold",
                            "type": "bool"
                        }
                    ],
                    "internalType": "struct NftMarket.MarketItem[]",
                    "name": "",
                    "type": "tuple[]"
                }
            ],
            "stateMutability": "view",
            "type": "function"
        },
        {
            "inputs": [],
            "name": "fetchNftsCreated",
            "outputs": [
                {
                    "components": [
                        {
                            "internalType": "uint256",
                            "name": "itemId",
                            "type": "uint256"
                        },
                        {
                            "internalType": "address",
                            "name": "nftContract",
                            "type": "address"
                        },
                        {
                            "internalType": "uint256",
                            "name": "tokenId",
                            "type": "uint256"
                        },
                        {
                            "internalType": "address payable",
                            "name": "seller",
                            "type": "address"
                        },
                        {
                            "internalType": "address payable",
                            "name": "owner",
                            "type": "address"
                        },
                        {
                            "internalType": "uint256",
                            "name": "price",
                            "type": "uint256"
                        },
                        {
                            "internalType": "bool",
                            "name": "sold",
                            "type": "bool"
                        }
                    ],
                    "internalType": "struct NftMarket.MarketItem[]",
                    "name": "",
                    "type": "tuple[]"
                }
            ],
            "stateMutability": "view",
            "type": "function"
        },
        {
            "inputs": [],
            "name": "getListingPrice",
            "outputs": [
                {
                    "internalType": "uint256",
                    "name": "",
                    "type": "uint256"
                }
            ],
            "stateMutability": "view",
            "type": "function"
        }
    ],
    "bytecode": "60806040526658d15e1762800060045534801561001b57600080fd5b506001600055600380546001600160a01b03191633179055610cdc806100426000396000f3fe6080604052600436106100555760003560e01c8063128ae7121461005a57806312e85585146100855780633f5abdf5146100a3578063a35d1da5146100b8578063c23b139e146100cd578063c59e929a146100e0575b600080fd5b34801561006657600080fd5b5061006f6100f5565b60405161007c9190610b0d565b60405180910390f35b34801561009157600080fd5b5060045460405190815260200161007c565b3480156100af57600080fd5b5061006f6102c8565b6100cb6100c6366004610bbd565b61044b565b005b6100cb6100db366004610bf0565b6106eb565b3480156100ec57600080fd5b5061006f610907565b6060600061010260015490565b905060008060005b83811015610165573360056000610122846001610c30565b81526020810191909152604001600020600401546001600160a01b0316141561015357610150600184610c30565b92505b8061015d81610c48565b91505061010a565b5060008267ffffffffffffffff81111561018157610181610c63565b6040519080825280602002602001820160405280156101ba57816020015b6101a7610ad1565b81526020019060019003908161019f5790505b50905060005b848110156102bf5733600560006101d8846001610c30565b81526020810191909152604001600020600401546001600160a01b031614156102ad576000610208826001610c30565b600081815260056020818152604092839020835160e0810185528154815260018201546001600160a01b0390811693820193909352600282015494810194909452600381015482166060850152600481015490911660808401529081015460a0830152600681015460ff16151560c083015285519293509185908790811061029257610292610c79565b60209081029190910101526102a8600186610c30565b945050505b806102b781610c48565b9150506101c0565b50949350505050565b606060006102d560015490565b905060006102e260025490565b6001546102ef9190610c8f565b90506000808267ffffffffffffffff81111561030d5761030d610c63565b60405190808252806020026020018201604052801561034657816020015b610333610ad1565b81526020019060019003908161032b5790505b50905060005b848110156102bf576000600581610364846001610c30565b81526020810191909152604001600020600401546001600160a01b03161415610439576000610394826001610c30565b600081815260056020818152604092839020835160e0810185528154815260018201546001600160a01b0390811693820193909352600282015494810194909452600381015482166060850152600481015490911660808401529081015460a0830152600681015460ff16151560c083015285519293509185908790811061041e5761041e610c79565b6020908102919091010152610434600186610c30565b945050505b8061044381610c48565b91505061034c565b600260005414156104a35760405162461bcd60e51b815260206004820152601f60248201527f5265656e7472616e637947756172643a207265656e7472616e742063616c6c0060448201526064015b60405180910390fd5b6002600055806104f55760405162461bcd60e51b815260206004820152601c60248201527f5072696365206d757374206265206174206c6561737420312077656900000000604482015260640161049a565b60045434146105525760405162461bcd60e51b8152602060048201526024808201527f5072696365206d75737420626520657175616c20746f206c697374696e6720706044820152637269636560e01b606482015260840161049a565b610560600180546001019055565b600061056b60015490565b6040805160e0810182528281526001600160a01b0387811660208084018281528486018a8152336060870181815260006080890181815260a08a018e815260c08b018381528d8452600598899052928c90209a518b55955160018b018054918b166001600160a01b0319928316179055945160028b0155915160038a018054918a1691861691909117905590516004808a01805492909916919094161790965591519286019290925592516006909401805494151560ff199095169490941790935592516323b872dd60e01b81529182015230602482015260448101869052919250906323b872dd90606401600060405180830381600087803b15801561067157600080fd5b505af1158015610685573d6000803e3d6000fd5b505060408051338152600060208201819052818301879052606082015290518693506001600160a01b038816925084917f045dfa01dcba2b36aba1d3dc4a874f4b0c5d2fbeb8d2c4b34a7d88c8d8f929d1919081900360800190a4505060016000555050565b6002600054141561073e5760405162461bcd60e51b815260206004820152601f60248201527f5265656e7472616e637947756172643a207265656e7472616e742063616c6c00604482015260640161049a565b60026000818155828152600560208190526040909120908101549101543482146107d2576040805162461bcd60e51b81526020600482015260248101919091527f506c65617365207375626d6974207468652061736b696e67207072696365206960448201527f6e206f7264657220746f20636f6d706c65746520746865207075726368617365606482015260840161049a565b6000838152600560205260408082206003015490516001600160a01b03909116913480156108fc02929091818181858888f1935050505015801561081a573d6000803e3d6000fd5b506040516323b872dd60e01b8152306004820152336024820152604481018290526001600160a01b038516906323b872dd90606401600060405180830381600087803b15801561086957600080fd5b505af115801561087d573d6000803e3d6000fd5b50505060008481526005602052604090206004810180546001600160a01b03191633179055600601805460ff19166001179055506108bf600280546001019055565b6003546004546040516001600160a01b039092169181156108fc0291906000818181858888f193505050501580156108fb573d6000803e3d6000fd5b50506001600055505050565b6060600061091460015490565b905060008060005b83811015610977573360056000610934846001610c30565b81526020810191909152604001600020600301546001600160a01b0316141561096557610962600184610c30565b92505b8061096f81610c48565b91505061091c565b5060008267ffffffffffffffff81111561099357610993610c63565b6040519080825280602002602001820160405280156109cc57816020015b6109b9610ad1565b8152602001906001900390816109b15790505b50905060005b848110156102bf5733600560006109ea846001610c30565b81526020810191909152604001600020600301546001600160a01b03161415610abf576000610a1a826001610c30565b600081815260056020818152604092839020835160e0810185528154815260018201546001600160a01b0390811693820193909352600282015494810194909452600381015482166060850152600481015490911660808401529081015460a0830152600681015460ff16151560c0830152855192935091859087908110610aa457610aa4610c79565b6020908102919091010152610aba600186610c30565b945050505b80610ac981610c48565b9150506109d2565b6040805160e081018252600080825260208201819052918101829052606081018290526080810182905260a0810182905260c081019190915290565b602080825282518282018190526000919060409081850190868401855b82811015610b9457815180518552868101516001600160a01b039081168887015286820151878701526060808301518216908701526080808301519091169086015260a0808201519086015260c09081015115159085015260e09093019290850190600101610b2a565b5091979650505050505050565b80356001600160a01b0381168114610bb857600080fd5b919050565b600080600060608486031215610bd257600080fd5b610bdb84610ba1565b95602085013595506040909401359392505050565b60008060408385031215610c0357600080fd5b610c0c83610ba1565b946020939093013593505050565b634e487b7160e01b600052601160045260246000fd5b60008219821115610c4357610c43610c1a565b500190565b6000600019821415610c5c57610c5c610c1a565b5060010190565b634e487b7160e01b600052604160045260246000fd5b634e487b7160e01b600052603260045260246000fd5b600082821015610ca157610ca1610c1a565b50039056fea2646970667358221220d506c8ab881b86c1793b33c3aed1c77c2186341b8208b46952ea18536cda071464736f6c634300080a0033",
    "sourcePath": "/Users/sambadiaw/Code/consensys-bootcamp/blockchain-developer-bootcamp-final-project/contracts/NftMarket.sol",
    "compiler": {
        "name": "solc",
        "version": "0.8.10+commit.fc410830"
    },
    "functionHashes": {
        "createMarketNft(address,uint256,uint256)": "a35d1da5",
        "createMarketSale(address,uint256)": "c23b139e",
        "fetchMarketNfts()": "3f5abdf5",
        "fetchMyNfts()": "128ae712",
        "fetchNftsCreated()": "c59e929a",
        "getListingPrice()": "12e85585"
    },
    "gasEstimates": {
        "creation": {
            "codeDepositCost": "658400",
            "executionCost": "69136",
            "totalCost": "727536"
        },
        "external": {
            "createMarketNft(address,uint256,uint256)": "infinite",
            "createMarketSale(address,uint256)": "infinite",
            "fetchMarketNfts()": "infinite",
            "fetchMyNfts()": "infinite",
            "fetchNftsCreated()": "infinite",
            "getListingPrice()": "2280"
        },
        "internal": {
            "removeNft()": "infinite"
        }
    }
}